{
  "_format": "hh-sol-artifact-1",
  "contractName": "MoraswapV2ERC20",
  "sourceName": "contracts/MoraswapV2ERC20.sol",
  "abi": [
    {
      "inputs": [],
      "stateMutability": "nonpayable",
      "type": "constructor"
    },
    {
      "anonymous": false,
      "inputs": [
        {
          "indexed": true,
          "internalType": "address",
          "name": "owner",
          "type": "address"
        },
        {
          "indexed": true,
          "internalType": "address",
          "name": "spender",
          "type": "address"
        },
        {
          "indexed": false,
          "internalType": "uint256",
          "name": "value",
          "type": "uint256"
        }
      ],
      "name": "Approval",
      "type": "event"
    },
    {
      "anonymous": false,
      "inputs": [
        {
          "indexed": true,
          "internalType": "address",
          "name": "from",
          "type": "address"
        },
        {
          "indexed": true,
          "internalType": "address",
          "name": "to",
          "type": "address"
        },
        {
          "indexed": false,
          "internalType": "uint256",
          "name": "value",
          "type": "uint256"
        }
      ],
      "name": "Transfer",
      "type": "event"
    },
    {
      "inputs": [],
      "name": "DOMAIN_SEPARATOR",
      "outputs": [
        {
          "internalType": "bytes32",
          "name": "",
          "type": "bytes32"
        }
      ],
      "stateMutability": "view",
      "type": "function"
    },
    {
      "inputs": [],
      "name": "PERMIT_TYPEHASH",
      "outputs": [
        {
          "internalType": "bytes32",
          "name": "",
          "type": "bytes32"
        }
      ],
      "stateMutability": "view",
      "type": "function"
    },
    {
      "inputs": [
        {
          "internalType": "address",
          "name": "",
          "type": "address"
        },
        {
          "internalType": "address",
          "name": "",
          "type": "address"
        }
      ],
      "name": "allowance",
      "outputs": [
        {
          "internalType": "uint256",
          "name": "",
          "type": "uint256"
        }
      ],
      "stateMutability": "view",
      "type": "function"
    },
    {
      "inputs": [
        {
          "internalType": "address",
          "name": "spender",
          "type": "address"
        },
        {
          "internalType": "uint256",
          "name": "value",
          "type": "uint256"
        }
      ],
      "name": "approve",
      "outputs": [
        {
          "internalType": "bool",
          "name": "",
          "type": "bool"
        }
      ],
      "stateMutability": "nonpayable",
      "type": "function"
    },
    {
      "inputs": [
        {
          "internalType": "address",
          "name": "",
          "type": "address"
        }
      ],
      "name": "balanceOf",
      "outputs": [
        {
          "internalType": "uint256",
          "name": "",
          "type": "uint256"
        }
      ],
      "stateMutability": "view",
      "type": "function"
    },
    {
      "inputs": [],
      "name": "decimals",
      "outputs": [
        {
          "internalType": "uint8",
          "name": "",
          "type": "uint8"
        }
      ],
      "stateMutability": "view",
      "type": "function"
    },
    {
      "inputs": [],
      "name": "name",
      "outputs": [
        {
          "internalType": "string",
          "name": "",
          "type": "string"
        }
      ],
      "stateMutability": "view",
      "type": "function"
    },
    {
      "inputs": [
        {
          "internalType": "address",
          "name": "",
          "type": "address"
        }
      ],
      "name": "nonces",
      "outputs": [
        {
          "internalType": "uint256",
          "name": "",
          "type": "uint256"
        }
      ],
      "stateMutability": "view",
      "type": "function"
    },
    {
      "inputs": [
        {
          "internalType": "address",
          "name": "owner",
          "type": "address"
        },
        {
          "internalType": "address",
          "name": "spender",
          "type": "address"
        },
        {
          "internalType": "uint256",
          "name": "value",
          "type": "uint256"
        },
        {
          "internalType": "uint256",
          "name": "deadline",
          "type": "uint256"
        },
        {
          "internalType": "uint8",
          "name": "v",
          "type": "uint8"
        },
        {
          "internalType": "bytes32",
          "name": "r",
          "type": "bytes32"
        },
        {
          "internalType": "bytes32",
          "name": "s",
          "type": "bytes32"
        }
      ],
      "name": "permit",
      "outputs": [],
      "stateMutability": "nonpayable",
      "type": "function"
    },
    {
      "inputs": [],
      "name": "symbol",
      "outputs": [
        {
          "internalType": "string",
          "name": "",
          "type": "string"
        }
      ],
      "stateMutability": "view",
      "type": "function"
    },
    {
      "inputs": [],
      "name": "totalSupply",
      "outputs": [
        {
          "internalType": "uint256",
          "name": "",
          "type": "uint256"
        }
      ],
      "stateMutability": "view",
      "type": "function"
    },
    {
      "inputs": [
        {
          "internalType": "address",
          "name": "to",
          "type": "address"
        },
        {
          "internalType": "uint256",
          "name": "value",
          "type": "uint256"
        }
      ],
      "name": "transfer",
      "outputs": [
        {
          "internalType": "bool",
          "name": "",
          "type": "bool"
        }
      ],
      "stateMutability": "nonpayable",
      "type": "function"
    },
    {
      "inputs": [
        {
          "internalType": "address",
          "name": "from",
          "type": "address"
        },
        {
          "internalType": "address",
          "name": "to",
          "type": "address"
        },
        {
          "internalType": "uint256",
          "name": "value",
          "type": "uint256"
        }
      ],
      "name": "transferFrom",
      "outputs": [
        {
          "internalType": "bool",
          "name": "",
          "type": "bool"
        }
      ],
      "stateMutability": "nonpayable",
      "type": "function"
    }
  ],
  "bytecode": "0x608060405234801561001057600080fd5b50604080518082018252601181527026b7b930b9bbb0b8102628102a37b5b2b760791b6020918201528151808301835260018152603160f81b9082015281517f8b73c3c69bb8fe3d512ecc4cf759cc79239f7b179b0ffacaa9a75d522b39400f818301527fb7c8b1a2596028b9bec9664bb89d0329805d8c7bbeb19efe940bfe084486b9d9818401527fc89efdaa54c0f20c7adf612882df0950f5a951637e0307cdcb4c672f298b8bc660608201524660808201523060a0808301919091528351808303909101815260c0909101909252815191012060035561091e806100f86000396000f3fe608060405234801561001057600080fd5b50600436106100cf5760003560e01c80633644e5151161008c57806395d89b411161006657806395d89b41146101f1578063a9059cbb14610213578063d505accf14610226578063dd62ed3e1461023b57600080fd5b80633644e515146101a857806370a08231146101b15780637ecebe00146101d157600080fd5b806306fdde03146100d4578063095ea7b31461011a57806318160ddd1461013d57806323b872dd1461015457806330adf81f14610167578063313ce5671461018e575b600080fd5b6101046040518060400160405280601181526020017026b7b930b9bbb0b8102628102a37b5b2b760791b81525081565b6040516101119190610833565b60405180910390f35b61012d610128366004610809565b610266565b6040519015158152602001610111565b61014660005481565b604051908152602001610111565b61012d61016236600461075a565b61027d565b6101467f6e71edae12b1b97f4d1f60370fef10105fa2faae0126114a169c64845d6126c981565b610196601281565b60405160ff9091168152602001610111565b61014660035481565b6101466101bf366004610705565b60016020526000908152604090205481565b6101466101df366004610705565b60046020526000908152604090205481565b6101046040518060400160405280600381526020016204d4c560ec1b81525081565b61012d610221366004610809565b610311565b610239610234366004610796565b61031e565b005b610146610249366004610727565b600260209081526000928352604080842090915290825290205481565b6000610273338484610536565b5060015b92915050565b6001600160a01b0383166000908152600260209081526040808320338452909152812054600019146102fc576001600160a01b03841660009081526002602090815260408083203384529091529020546102d79083610598565b6001600160a01b03851660009081526002602090815260408083203384529091529020555b6103078484846105ee565b5060019392505050565b60006102733384846105ee565b428410156103675760405162461bcd60e51b8152602060048201526011602482015270135bdc985cddd85c0e8811561412549151607a1b60448201526064015b60405180910390fd5b6003546001600160a01b038816600090815260046020526040812080549192917f6e71edae12b1b97f4d1f60370fef10105fa2faae0126114a169c64845d6126c9918b918b918b9190876103ba836108b7565b909155506040805160208101969096526001600160a01b0394851690860152929091166060840152608083015260a082015260c0810187905260e0016040516020818303038152906040528051906020012060405160200161043392919061190160f01b81526002810192909252602282015260420190565b60408051601f198184030181528282528051602091820120600080855291840180845281905260ff88169284019290925260608301869052608083018590529092509060019060a0016020604051602081039080840390855afa15801561049e573d6000803e3d6000fd5b5050604051601f1901519150506001600160a01b038116158015906104d45750886001600160a01b0316816001600160a01b0316145b6105205760405162461bcd60e51b815260206004820152601b60248201527f4d6f7261737761703a20494e56414c49445f5349474e41545552450000000000604482015260640161035e565b61052b898989610536565b505050505050505050565b6001600160a01b0383811660008181526002602090815260408083209487168084529482529182902085905590518481527f8c5be1e5ebec7d5bd14f71427d1e84f3dd0314c0f7b2291e5b200ac8c7c3b92591015b60405180910390a3505050565b6000826105a583826108a0565b91508111156102775760405162461bcd60e51b815260206004820152601560248201527464732d6d6174682d7375622d756e646572666c6f7760581b604482015260640161035e565b6001600160a01b0383166000908152600160205260409020546106119082610598565b6001600160a01b0380851660009081526001602052604080822093909355908416815220546106409082610694565b6001600160a01b0380841660008181526001602052604090819020939093559151908516907fddf252ad1be2c89b69c2b068fc378daa952ba7f163c4a11628f55a4df523b3ef9061058b9085815260200190565b6000826106a18382610888565b91508110156102775760405162461bcd60e51b815260206004820152601460248201527364732d6d6174682d6164642d6f766572666c6f7760601b604482015260640161035e565b80356001600160a01b038116811461070057600080fd5b919050565b60006020828403121561071757600080fd5b610720826106e9565b9392505050565b6000806040838503121561073a57600080fd5b610743836106e9565b9150610751602084016106e9565b90509250929050565b60008060006060848603121561076f57600080fd5b610778846106e9565b9250610786602085016106e9565b9150604084013590509250925092565b600080600080600080600060e0888a0312156107b157600080fd5b6107ba886106e9565b96506107c8602089016106e9565b95506040880135945060608801359350608088013560ff811681146107ec57600080fd5b9699959850939692959460a0840135945060c09093013592915050565b6000806040838503121561081c57600080fd5b610825836106e9565b946020939093013593505050565b600060208083528351808285015260005b8181101561086057858101830151858201604001528201610844565b81811115610872576000604083870101525b50601f01601f1916929092016040019392505050565b6000821982111561089b5761089b6108d2565b500190565b6000828210156108b2576108b26108d2565b500390565b60006000198214156108cb576108cb6108d2565b5060010190565b634e487b7160e01b600052601160045260246000fdfea2646970667358221220e5c56a53d23e9cd4b2d9ac0b2c491cf50e5ffb57ad84b894147da114aa8df0b764736f6c63430008070033",
  "linkReferences": {},
  "deployedLinkReferences": {}
}